:100000000C9434000C9446000C9446000C9446006A
:100010000C9446000C9446000C9446000C94460048
:100020000C9446000C9446000C9446000C94460038
:100030000C9446000C9446000C9446000C94460028
:100040000C9446000C9446000C9460000C94A300A1
:100050000C9446000C9446000C9446000C94460008
:100060000C9446000C94460011241FBECFEFD8E03C
:10007000DEBFCDBF11E0A0E0B1E001C01D92A23211
:10008000B107E1F70E94CE010C9436020C940000F7
:10009000BC01F89480E197E20E94E401615071098B
:1000A0007093C5006093C40088E98093C1008EE01E
:1000B0008093C2001092000110920101789408957B
:1000C0001F920F920FB60F9211248F939F93EF936D
:1000D000FF939091C60080910001803140F4E82F99
:1000E000F0E0EE5FFE4F90838F5F80930001FF9101
:1000F000EF919F918F910F900FBE0F901F901895C9
:10010000809100018823D9F0F8942091020130E019
:1001100070910001872F90E0019760E006C0FA011E
:10012000EE5FFE4F418140836F5F462F50E04817DE
:100130005907ACF3715070930001789402C02FEF0F
:100140003FEFC90108951F920F920FB60F9211242D
:100150002F933F934F935F938F939F93EF93FF93CF
:10016000409101014423C1F0809112018093C600A7
:10017000842F90E0019750E006C0F901EE5EFE4F3B
:10018000218120835F5F252F30E028173907ACF3EA
:1001900041504093010105C08091C1008F7D809343
:1001A000C100FF91EF919F918F915F914F913F918E
:1001B0002F910F900FBE0F901F901895F89490916B
:1001C0000101911107C02091C00025FF05C0809357
:1001D000C6000FC0903180F4E92FF0E0EE5EFE4FD4
:1001E00080839F5F909301018091C1008062809322
:1001F000C10021E030E002C020E030E07894C90185
:1002000008958091C10084FF08C00E9480009C0175
:100210002F3F8FEF3807C9F302C02FEF3FEFC9011F
:100220000895CF93C82F8091C10083FF0DC0CA30BD
:1002300019F48DE00E9411018C2F0E94DE00892BA1
:10024000D9F320E030E002C02FEF3FEFC901CF919A
:100250000895EF92FF920F931F93CF93DF937B014B
:100260008C01EC0121E0E21AF1080FC00E9480002D
:100270008F3F2FEF9207D1F38D30910511F4188243
:1002800001C0888321960D9731F0CE01801B910B20
:100290008E159F055CF3DF91CF911F910F91FF9019
:1002A000EF900895BF92CF92DF92EF92FF920F935B
:1002B0001F93CF93DF936B017C01EC0181E0C81A9F
:1002C000D10817C00E9480008C010F3F8FEF1807E4
:1002D000C9F30D30110511F4188207C0B02E088340
:1002E0008B2D0E94DE00892BD9F321960D3011054C
:1002F00031F0CE018E199F098C159D051CF38DE000
:100300000E94DE00892BD9F38AE00E94DE00892B4F
:10031000D9F3DF91CF911F910F91FF90EF90DF9074
:10032000CF90BF900895CF93DF93EC010DC08A303A
:1003300029F48DE00E94DE00892BD9F388810E9488
:10034000DE00892BD9F3219688818111F0CFDF91CE
:10035000CF910895AC019B011092C500A4E2B4EFC7
:100360000E94D801E4E6E49F9001E59F300D11243E
:1003700040E050E00E94F801215031092093C40070
:1003800088E18093C10086E28093C2000895809145
:10039000C00087FFFCCF8091C600089560E170E047
:1003A00080E690E00E94AA0181E60E94DE00FCCF78
:1003B000A29FB001B39FC001A39F01D0B29F700D57
:1003C000811D1124911D0895AA1BBB1B51E107C07B
:1003D000AA1FBB1FA617B70710F0A61BB70B881FD5
:1003E000991F5A95A9F780959095BC01CD01089564
:1003F000052E97FB16F4009407D057FD0DD00E94F0
:10040000140207FC09D07EF4909580957095619553
:100410007F4F8F4F9F4F0895509540953095219570
:100420003F4F4F4F5F4F0895A1E21A2EAA1BBB1BEF
:10043000FD010DC0AA1FBB1FEE1FFF1FA217B307B0
:10044000E407F50720F0A21BB30BE40BF50B661FC6
:10045000771F881F991F1A9469F76095709580958A
:1004600090959B01AC01BD01CF010895F894FFCF99
:00000001FF
